{
  "_format": "hh-sol-artifact-1",
  "contractName": "CarbonRegistry",
  "sourceName": "contracts/registry/CarbonRegistry.sol",
  "abi": [
    {
      "inputs": [
        {
          "internalType": "address",
          "name": "_dCarbonToken",
          "type": "address"
        },
        {
          "internalType": "address",
          "name": "_dEnergyToken",
          "type": "address"
        },
        {
          "internalType": "address",
          "name": "_dLuzToken",
          "type": "address"
        }
      ],
      "stateMutability": "nonpayable",
      "type": "constructor"
    },
    {
      "inputs": [],
      "name": "CreditAlreadyRevoked",
      "type": "error"
    },
    {
      "inputs": [],
      "name": "EmptyCountry",
      "type": "error"
    },
    {
      "inputs": [],
      "name": "EmptyProjectName",
      "type": "error"
    },
    {
      "inputs": [],
      "name": "EmptyReason",
      "type": "error"
    },
    {
      "inputs": [
        {
          "internalType": "uint256",
          "name": "requested",
          "type": "uint256"
        },
        {
          "internalType": "uint256",
          "name": "available",
          "type": "uint256"
        }
      ],
      "name": "InsufficientDluzSupply",
      "type": "error"
    },
    {
      "inputs": [],
      "name": "InvalidAddress",
      "type": "error"
    },
    {
      "inputs": [],
      "name": "InvalidCreditId",
      "type": "error"
    },
    {
      "inputs": [
        {
          "internalType": "address",
          "name": "owner",
          "type": "address"
        }
      ],
      "name": "OwnableInvalidOwner",
      "type": "error"
    },
    {
      "inputs": [
        {
          "internalType": "address",
          "name": "account",
          "type": "address"
        }
      ],
      "name": "OwnableUnauthorizedAccount",
      "type": "error"
    },
    {
      "inputs": [],
      "name": "ReentrancyGuardReentrantCall",
      "type": "error"
    },
    {
      "inputs": [],
      "name": "ZeroAmount",
      "type": "error"
    },
    {
      "anonymous": false,
      "inputs": [
        {
          "indexed": true,
          "internalType": "uint256",
          "name": "retirementId",
          "type": "uint256"
        },
        {
          "indexed": true,
          "internalType": "address",
          "name": "retiree",
          "type": "address"
        },
        {
          "indexed": false,
          "internalType": "uint256",
          "name": "amount",
          "type": "uint256"
        },
        {
          "indexed": false,
          "internalType": "string",
          "name": "reason",
          "type": "string"
        },
        {
          "indexed": false,
          "internalType": "uint256",
          "name": "timestamp",
          "type": "uint256"
        }
      ],
      "name": "CarbonRetired",
      "type": "event"
    },
    {
      "anonymous": false,
      "inputs": [
        {
          "indexed": true,
          "internalType": "uint256",
          "name": "creditId",
          "type": "uint256"
        },
        {
          "indexed": true,
          "internalType": "address",
          "name": "project",
          "type": "address"
        },
        {
          "indexed": false,
          "internalType": "uint256",
          "name": "tonnes",
          "type": "uint256"
        },
        {
          "indexed": false,
          "internalType": "enum CarbonRegistry.EnergyType",
          "name": "energyType",
          "type": "uint8"
        },
        {
          "indexed": false,
          "internalType": "string",
          "name": "projectName",
          "type": "string"
        },
        {
          "indexed": false,
          "internalType": "string",
          "name": "country",
          "type": "string"
        },
        {
          "indexed": false,
          "internalType": "bytes32",
          "name": "documentHash",
          "type": "bytes32"
        },
        {
          "indexed": false,
          "internalType": "uint256",
          "name": "timestamp",
          "type": "uint256"
        }
      ],
      "name": "CreditRegistered",
      "type": "event"
    },
    {
      "anonymous": false,
      "inputs": [
        {
          "indexed": true,
          "internalType": "uint256",
          "name": "creditId",
          "type": "uint256"
        },
        {
          "indexed": false,
          "internalType": "uint256",
          "name": "timestamp",
          "type": "uint256"
        }
      ],
      "name": "CreditRevoked",
      "type": "event"
    },
    {
      "anonymous": false,
      "inputs": [
        {
          "indexed": false,
          "internalType": "uint256",
          "name": "oldRate",
          "type": "uint256"
        },
        {
          "indexed": false,
          "internalType": "uint256",
          "name": "newRate",
          "type": "uint256"
        }
      ],
      "name": "DluzRewardRateUpdated",
      "type": "event"
    },
    {
      "anonymous": false,
      "inputs": [
        {
          "indexed": true,
          "internalType": "address",
          "name": "previousOwner",
          "type": "address"
        },
        {
          "indexed": true,
          "internalType": "address",
          "name": "newOwner",
          "type": "address"
        }
      ],
      "name": "OwnershipTransferred",
      "type": "event"
    },
    {
      "inputs": [],
      "name": "dCarbonBurnable",
      "outputs": [
        {
          "internalType": "contract ERC20Burnable",
          "name": "",
          "type": "address"
        }
      ],
      "stateMutability": "view",
      "type": "function"
    },
    {
      "inputs": [],
      "name": "dCarbonMinter",
      "outputs": [
        {
          "internalType": "contract IMintableToken",
          "name": "",
          "type": "address"
        }
      ],
      "stateMutability": "view",
      "type": "function"
    },
    {
      "inputs": [],
      "name": "dEnergyToken",
      "outputs": [
        {
          "internalType": "contract IMintableToken",
          "name": "",
          "type": "address"
        }
      ],
      "stateMutability": "view",
      "type": "function"
    },
    {
      "inputs": [],
      "name": "dLuzToken",
      "outputs": [
        {
          "internalType": "contract IOwnableMintToken",
          "name": "",
          "type": "address"
        }
      ],
      "stateMutability": "view",
      "type": "function"
    },
    {
      "inputs": [],
      "name": "dluzRewardRate",
      "outputs": [
        {
          "internalType": "uint256",
          "name": "",
          "type": "uint256"
        }
      ],
      "stateMutability": "view",
      "type": "function"
    },
    {
      "inputs": [
        {
          "internalType": "uint256",
          "name": "id",
          "type": "uint256"
        }
      ],
      "name": "getCredit",
      "outputs": [
        {
          "components": [
            {
              "internalType": "uint256",
              "name": "id",
              "type": "uint256"
            },
            {
              "internalType": "address",
              "name": "project",
              "type": "address"
            },
            {
              "internalType": "uint256",
              "name": "tonnes",
              "type": "uint256"
            },
            {
              "internalType": "enum CarbonRegistry.EnergyType",
              "name": "energyType",
              "type": "uint8"
            },
            {
              "internalType": "string",
              "name": "projectName",
              "type": "string"
            },
            {
              "internalType": "string",
              "name": "country",
              "type": "string"
            },
            {
              "internalType": "bytes32",
              "name": "documentHash",
              "type": "bytes32"
            },
            {
              "internalType": "uint256",
              "name": "timestamp",
              "type": "uint256"
            },
            {
              "internalType": "uint256",
              "name": "blockNumber",
              "type": "uint256"
            },
            {
              "internalType": "bool",
              "name": "active",
              "type": "bool"
            }
          ],
          "internalType": "struct CarbonRegistry.CarbonCredit",
          "name": "",
          "type": "tuple"
        }
      ],
      "stateMutability": "view",
      "type": "function"
    },
    {
      "inputs": [
        {
          "internalType": "uint256",
          "name": "offset",
          "type": "uint256"
        },
        {
          "internalType": "uint256",
          "name": "limit",
          "type": "uint256"
        }
      ],
      "name": "getCredits",
      "outputs": [
        {
          "components": [
            {
              "internalType": "uint256",
              "name": "id",
              "type": "uint256"
            },
            {
              "internalType": "address",
              "name": "project",
              "type": "address"
            },
            {
              "internalType": "uint256",
              "name": "tonnes",
              "type": "uint256"
            },
            {
              "internalType": "enum CarbonRegistry.EnergyType",
              "name": "energyType",
              "type": "uint8"
            },
            {
              "internalType": "string",
              "name": "projectName",
              "type": "string"
            },
            {
              "internalType": "string",
              "name": "country",
              "type": "string"
            },
            {
              "internalType": "bytes32",
              "name": "documentHash",
              "type": "bytes32"
            },
            {
              "internalType": "uint256",
              "name": "timestamp",
              "type": "uint256"
            },
            {
              "internalType": "uint256",
              "name": "blockNumber",
              "type": "uint256"
            },
            {
              "internalType": "bool",
              "name": "active",
              "type": "bool"
            }
          ],
          "internalType": "struct CarbonRegistry.CarbonCredit[]",
          "name": "",
          "type": "tuple[]"
        }
      ],
      "stateMutability": "view",
      "type": "function"
    },
    {
      "inputs": [
        {
          "internalType": "uint256",
          "name": "id",
          "type": "uint256"
        }
      ],
      "name": "getRetirement",
      "outputs": [
        {
          "components": [
            {
              "internalType": "address",
              "name": "retiree",
              "type": "address"
            },
            {
              "internalType": "uint256",
              "name": "amount",
              "type": "uint256"
            },
            {
              "internalType": "string",
              "name": "reason",
              "type": "string"
            },
            {
              "internalType": "uint256",
              "name": "timestamp",
              "type": "uint256"
            },
            {
              "internalType": "uint256",
              "name": "blockNumber",
              "type": "uint256"
            }
          ],
          "internalType": "struct CarbonRegistry.Retirement",
          "name": "",
          "type": "tuple"
        }
      ],
      "stateMutability": "view",
      "type": "function"
    },
    {
      "inputs": [
        {
          "internalType": "uint256",
          "name": "offset",
          "type": "uint256"
        },
        {
          "internalType": "uint256",
          "name": "limit",
          "type": "uint256"
        }
      ],
      "name": "getRetirements",
      "outputs": [
        {
          "components": [
            {
              "internalType": "address",
              "name": "retiree",
              "type": "address"
            },
            {
              "internalType": "uint256",
              "name": "amount",
              "type": "uint256"
            },
            {
              "internalType": "string",
              "name": "reason",
              "type": "string"
            },
            {
              "internalType": "uint256",
              "name": "timestamp",
              "type": "uint256"
            },
            {
              "internalType": "uint256",
              "name": "blockNumber",
              "type": "uint256"
            }
          ],
          "internalType": "struct CarbonRegistry.Retirement[]",
          "name": "",
          "type": "tuple[]"
        }
      ],
      "stateMutability": "view",
      "type": "function"
    },
    {
      "inputs": [],
      "name": "owner",
      "outputs": [
        {
          "internalType": "address",
          "name": "",
          "type": "address"
        }
      ],
      "stateMutability": "view",
      "type": "function"
    },
    {
      "inputs": [
        {
          "internalType": "address",
          "name": "project",
          "type": "address"
        },
        {
          "internalType": "uint256",
          "name": "tonnes",
          "type": "uint256"
        },
        {
          "internalType": "enum CarbonRegistry.EnergyType",
          "name": "energyType",
          "type": "uint8"
        },
        {
          "internalType": "string",
          "name": "projectName",
          "type": "string"
        },
        {
          "internalType": "string",
          "name": "country",
          "type": "string"
        },
        {
          "internalType": "bytes32",
          "name": "documentHash",
          "type": "bytes32"
        }
      ],
      "name": "registerCredit",
      "outputs": [],
      "stateMutability": "nonpayable",
      "type": "function"
    },
    {
      "inputs": [],
      "name": "renounceOwnership",
      "outputs": [],
      "stateMutability": "nonpayable",
      "type": "function"
    },
    {
      "inputs": [
        {
          "internalType": "uint256",
          "name": "amount",
          "type": "uint256"
        },
        {
          "internalType": "string",
          "name": "reason",
          "type": "string"
        }
      ],
      "name": "retire",
      "outputs": [],
      "stateMutability": "nonpayable",
      "type": "function"
    },
    {
      "inputs": [
        {
          "internalType": "uint256",
          "name": "creditId",
          "type": "uint256"
        }
      ],
      "name": "revokeCredit",
      "outputs": [],
      "stateMutability": "nonpayable",
      "type": "function"
    },
    {
      "inputs": [
        {
          "internalType": "uint256",
          "name": "newRate",
          "type": "uint256"
        }
      ],
      "name": "setDluzRewardRate",
      "outputs": [],
      "stateMutability": "nonpayable",
      "type": "function"
    },
    {
      "inputs": [
        {
          "internalType": "address",
          "name": "",
          "type": "address"
        }
      ],
      "name": "tonnesRegisteredBy",
      "outputs": [
        {
          "internalType": "uint256",
          "name": "",
          "type": "uint256"
        }
      ],
      "stateMutability": "view",
      "type": "function"
    },
    {
      "inputs": [],
      "name": "totalCredits",
      "outputs": [
        {
          "internalType": "uint256",
          "name": "",
          "type": "uint256"
        }
      ],
      "stateMutability": "view",
      "type": "function"
    },
    {
      "inputs": [],
      "name": "totalDluzRewarded",
      "outputs": [
        {
          "internalType": "uint256",
          "name": "",
          "type": "uint256"
        }
      ],
      "stateMutability": "view",
      "type": "function"
    },
    {
      "inputs": [],
      "name": "totalRetired",
      "outputs": [
        {
          "internalType": "uint256",
          "name": "",
          "type": "uint256"
        }
      ],
      "stateMutability": "view",
      "type": "function"
    },
    {
      "inputs": [
        {
          "internalType": "address",
          "name": "",
          "type": "address"
        }
      ],
      "name": "totalRetiredBy",
      "outputs": [
        {
          "internalType": "uint256",
          "name": "",
          "type": "uint256"
        }
      ],
      "stateMutability": "view",
      "type": "function"
    },
    {
      "inputs": [],
      "name": "totalRetirements",
      "outputs": [
        {
          "internalType": "uint256",
          "name": "",
          "type": "uint256"
        }
      ],
      "stateMutability": "view",
      "type": "function"
    },
    {
      "inputs": [],
      "name": "totalTonnesRegistered",
      "outputs": [
        {
          "internalType": "uint256",
          "name": "",
          "type": "uint256"
        }
      ],
      "stateMutability": "view",
      "type": "function"
    },
    {
      "inputs": [
        {
          "internalType": "address",
          "name": "newOwner",
          "type": "address"
        }
      ],
      "name": "transferOwnership",
      "outputs": [],
      "stateMutability": "nonpayable",
      "type": "function"
    }
  ],
  "bytecode": "0x610100604052600a6002553480156200001757600080fd5b5060405162001fdb38038062001fdb8339810160408190526200003a9162000179565b33806200006157604051631e4fbdf760e01b81526000600482015260240160405180910390fd5b6200006c816200010c565b50600180556001600160a01b038316620000995760405163e6c4247b60e01b815260040160405180910390fd5b6001600160a01b038216620000c15760405163e6c4247b60e01b815260040160405180910390fd5b6001600160a01b038116620000e95760405163e6c4247b60e01b815260040160405180910390fd5b6001600160a01b03928316608081905260a05290821660c0521660e052620001c3565b600080546001600160a01b038381166001600160a01b0319831681178455604051919092169283917f8be0079c531659141344cd1fd0a4f28419497f9722a3daafe3b4186f6b6457e09190a35050565b80516001600160a01b03811681146200017457600080fd5b919050565b6000806000606084860312156200018f57600080fd5b6200019a846200015c565b9250620001aa602085016200015c565b9150620001ba604085016200015c565b90509250925092565b60805160a05160c05160e051611db462000227600039600081816101b00152818161107b015261124b01526000818161021801526111d30152600081816101570152818161052c01526105b801526000818161023f01526111530152611db46000f3fe608060405234801561001057600080fd5b506004361061014d5760003560e01c806378362acd116100c3578063b7739ce11161007c578063b7739ce1146102f8578063d179f80d14610318578063da304e4d14610338578063e130ccf514610358578063e69b5cd614610361578063f2fde38b1461037457600080fd5b806378362acd1461028d5780637c284b58146102ad5780638da5cb5b146102b6578063a44b1b2a146102c7578063b4621453146102e7578063b5bd3eb9146102f057600080fd5b80633972ce5b116101155780633972ce5b1461021357806341ad82a31461023a57806346d46c6a146102615780634d8f59f0146102695780635f09ffbd14610272578063715018a61461028557600080fd5b80630c90f9fc146101525780630ef7377b146101965780631e5e13eb146101ab5780632ebd9357146101d257806335b62e3f146101e5575b600080fd5b6101797f000000000000000000000000000000000000000000000000000000000000000081565b6040516001600160a01b0390911681526020015b60405180910390f35b6101a96101a43660046116a8565b610387565b005b6101797f000000000000000000000000000000000000000000000000000000000000000081565b6101a96101e03660046116a8565b610472565b6102056101f33660046116dd565b60086020526000908152604090205481565b60405190815260200161018d565b6101797f000000000000000000000000000000000000000000000000000000000000000081565b6101797f000000000000000000000000000000000000000000000000000000000000000081565b600754610205565b61020560095481565b6101a9610280366004611748565b6104bf565b6101a961077a565b6102a061029b3660046116a8565b61078e565b60405161018d919061182b565b61020560055481565b6000546001600160a01b0316610179565b6102056102d53660046116dd565b60066020526000908152604090205481565b61020560025481565b600354610205565b61030b61030636600461183e565b6108a8565b60405161018d919061194b565b61032b61032636600461183e565b610ba0565b60405161018d91906119ad565b61034b6103463660046116a8565b610db3565b60405161018d9190611a02565b61020560045481565b6101a961036f366004611a15565b610fa1565b6101a96103823660046116dd565b611538565b61038f611576565b60035481106103b15760405163847b3a4960e01b815260040160405180910390fd5b600381815481106103c4576103c4611abd565b600091825260209091206009600a90920201015460ff166103f8576040516396217c5b60e01b815260040160405180910390fd5b60006003828154811061040d5761040d611abd565b90600052602060002090600a020160090160006101000a81548160ff021916908315150217905550807f917cc36be244a9d6bd56b642e3f16e88f9474a8d733b828e9e78d942939ab49a4260405161046791815260200190565b60405180910390a250565b61047a611576565b600280549082905560408051828152602081018490527f222283f4493f54b4a735c44590d47d7c9b140e5431b3fe54399b5c84abc39a4d910160405180910390a15050565b6104c76115a3565b826000036104e857604051631f2a200560e01b815260040160405180910390fd5b600081900361050a5760405163db72b02360e01b815260040160405180910390fd5b6040516323b872dd60e01b8152336004820152306024820152604481018490527f00000000000000000000000000000000000000000000000000000000000000006001600160a01b0316906323b872dd906064016020604051808303816000875af115801561057d573d6000803e3d6000fd5b505050506040513d601f19601f820116820180604052508101906105a19190611ad3565b50604051630852cd8d60e31b8152600481018490527f00000000000000000000000000000000000000000000000000000000000000006001600160a01b0316906342966c6890602401600060405180830381600087803b15801561060457600080fd5b505af1158015610618573d6000803e3d6000fd5b5050600780546040805160a08101825233815260208082018a90528251601f89018290048202810182018452888152939650939450929083019190879087908190840183828082843760009201829052509385525050426020808501919091524360409485015285546001808201885596845292819020855160059094020180546001600160a01b0319166001600160a01b0390941693909317835584015194820194909455908201519192509060028201906106d59082611b93565b5060608201516003820155608090910151600490910155336000908152600860205260408120805486929061070b908490611c69565b9250508190555083600960008282546107249190611c69565b9091555050604051339082907ff5b372144fe22b0753197b9ef3daaf8320b26f4f36c8f7eccd4ae5582f397ab990610763908890889088904290611ca5565b60405180910390a35061077560018055565b505050565b610782611576565b61078c60006115cd565b565b61079661161d565b600782815481106107a9576107a9611abd565b90600052602060002090600502016040518060a00160405290816000820160009054906101000a90046001600160a01b03166001600160a01b03166001600160a01b031681526020016001820154815260200160028201805461080b90611b0b565b80601f016020809104026020016040519081016040528092919081815260200182805461083790611b0b565b80156108845780601f1061085957610100808354040283529160200191610884565b820191906000526020600020905b81548152906001019060200180831161086757829003601f168201915b50505050508152602001600382015481526020016004820154815250509050919050565b6003546060908084106108ef5760408051600080825260208201909252906108e6565b6108d3611655565b8152602001906001900390816108cb5790505b50915050610b9a565b60006108fb8486611c69565b9050818111156109085750805b60006109148683611cd0565b905060008167ffffffffffffffff81111561093157610931611af5565b60405190808252806020026020018201604052801561096a57816020015b610957611655565b81526020019060019003908161094f5790505b50905060005b82811015610b93576003610984828a611c69565b8154811061099457610994611abd565b60009182526020918290206040805161014081018252600a9093029091018054835260018101546001600160a01b031693830193909352600280840154918301919091526003830154919291606084019160ff909116908111156109fa576109fa611860565b6002811115610a0b57610a0b611860565b8152602001600482018054610a1f90611b0b565b80601f0160208091040260200160405190810160405280929190818152602001828054610a4b90611b0b565b8015610a985780601f10610a6d57610100808354040283529160200191610a98565b820191906000526020600020905b815481529060010190602001808311610a7b57829003601f168201915b50505050508152602001600582018054610ab190611b0b565b80601f0160208091040260200160405190810160405280929190818152602001828054610add90611b0b565b8015610b2a5780601f10610aff57610100808354040283529160200191610b2a565b820191906000526020600020905b815481529060010190602001808311610b0d57829003601f168201915b505050918352505060068201546020820152600782015460408201526008820154606082015260099091015460ff1615156080909101528251839083908110610b7557610b75611abd565b60200260200101819052508080610b8b90611ce3565b915050610970565b5093505050505b92915050565b600754606090808410610be65760408051600080825260208201909252906108e6565b610bcb61161d565b815260200190600190039081610bc357905050915050610b9a565b6000610bf28486611c69565b905081811115610bff5750805b6000610c0b8683611cd0565b905060008167ffffffffffffffff811115610c2857610c28611af5565b604051908082528060200260200182016040528015610c6157816020015b610c4e61161d565b815260200190600190039081610c465790505b50905060005b82811015610b93576007610c7b828a611c69565b81548110610c8b57610c8b611abd565b90600052602060002090600502016040518060a00160405290816000820160009054906101000a90046001600160a01b03166001600160a01b03166001600160a01b0316815260200160018201548152602001600282018054610ced90611b0b565b80601f0160208091040260200160405190810160405280929190818152602001828054610d1990611b0b565b8015610d665780601f10610d3b57610100808354040283529160200191610d66565b820191906000526020600020905b815481529060010190602001808311610d4957829003601f168201915b5050505050815260200160038201548152602001600482015481525050828281518110610d9557610d95611abd565b60200260200101819052508080610dab90611ce3565b915050610c67565b610dbb611655565b60038281548110610dce57610dce611abd565b60009182526020918290206040805161014081018252600a9093029091018054835260018101546001600160a01b031693830193909352600280840154918301919091526003830154919291606084019160ff90911690811115610e3457610e34611860565b6002811115610e4557610e45611860565b8152602001600482018054610e5990611b0b565b80601f0160208091040260200160405190810160405280929190818152602001828054610e8590611b0b565b8015610ed25780601f10610ea757610100808354040283529160200191610ed2565b820191906000526020600020905b815481529060010190602001808311610eb557829003601f168201915b50505050508152602001600582018054610eeb90611b0b565b80601f0160208091040260200160405190810160405280929190818152602001828054610f1790611b0b565b8015610f645780601f10610f3957610100808354040283529160200191610f64565b820191906000526020600020905b815481529060010190602001808311610f4757829003601f168201915b505050918352505060068201546020820152600782015460408201526008820154606082015260099091015460ff16151560809091015292915050565b610fa9611576565b610fb16115a3565b6001600160a01b038816610fd85760405163e6c4247b60e01b815260040160405180910390fd5b86600003610ff957604051631f2a200560e01b815260040160405180910390fd5b600084900361101b57604051636754d56f60e01b815260040160405180910390fd5b600082900361103d5760405163264c18e760e11b815260040160405180910390fd5b600061105188670de0b6b3a7640000611cfc565b90506000600254896110639190611cfc565b61107590670de0b6b3a7640000611cfc565b905060007f00000000000000000000000000000000000000000000000000000000000000006001600160a01b031663f76e95e56040518163ffffffff1660e01b8152600401602060405180830381865afa1580156110d7573d6000803e3d6000fd5b505050506040513d601f19601f820116820180604052508101906110fb9190611d13565b90508082111561112d5760405163172a429d60e21b815260048101839052602481018290526044015b60405180910390fd5b6040516340c10f1960e01b81526001600160a01b038c81166004830152602482018590527f000000000000000000000000000000000000000000000000000000000000000016906340c10f1990604401600060405180830381600087803b15801561119757600080fd5b505af11580156111ab573d6000803e3d6000fd5b50506040516340c10f1960e01b81526001600160a01b038e81166004830152602482018790527f00000000000000000000000000000000000000000000000000000000000000001692506340c10f199150604401600060405180830381600087803b15801561121957600080fd5b505af115801561122d573d6000803e3d6000fd5b50506040516340c10f1960e01b8152336004820152602481018590527f00000000000000000000000000000000000000000000000000000000000000006001600160a01b031692506340c10f199150604401600060405180830381600087803b15801561129957600080fd5b505af11580156112ad573d6000803e3d6000fd5b505050506000600380549050905060036040518061014001604052808381526020018e6001600160a01b031681526020018d81526020018c60028111156112f6576112f6611860565b81526020018b8b8080601f016020809104026020016040519081016040528093929190818152602001838380828437600092019190915250505090825250604080516020601f8c018190048102820181019092528a815291810191908b908b9081908401838280828437600092018290525093855250505060208083018a905242604080850191909152436060808601919091526001608090950185905286548086018855968452928290208551600a909702019586559084015185840180546001600160a01b0319166001600160a01b03909216919091179055830151600280860191909155908301516003850180549495949193909260ff1990921691849081111561140657611406611860565b02179055506080820151600482019061141f9082611b93565b5060a082015160058201906114349082611b93565b5060c0820151600682015560e082015160078201556101008201516008820155610120909101516009909101805460ff1916911515919091179055600480548c9190600090611484908490611c69565b92505081905550826005600082825461149d9190611c69565b90915550506001600160a01b038c16600090815260066020526040812080548d92906114ca908490611c69565b925050819055508b6001600160a01b0316817f4a06adcd52f90580eb065a2d457bbb9cb1f4b3a124e5b21a56d278c13ccd852f8d8d8d8d8d8d8d42604051611519989796959493929190611d2c565b60405180910390a35050505061152e60018055565b5050505050505050565b611540611576565b6001600160a01b03811661156a57604051631e4fbdf760e01b815260006004820152602401611124565b611573816115cd565b50565b6000546001600160a01b0316331461078c5760405163118cdaa760e01b8152336004820152602401611124565b6002600154036115c657604051633ee5aeb560e01b815260040160405180910390fd5b6002600155565b600080546001600160a01b038381166001600160a01b0319831681178455604051919092169283917f8be0079c531659141344cd1fd0a4f28419497f9722a3daafe3b4186f6b6457e09190a35050565b6040518060a0016040528060006001600160a01b03168152602001600081526020016060815260200160008152602001600081525090565b604080516101408101825260008082526020820181905291810182905260608082018390526080820181905260a082015260c0810182905260e08101829052610100810182905261012081019190915290565b6000602082840312156116ba57600080fd5b5035919050565b80356001600160a01b03811681146116d857600080fd5b919050565b6000602082840312156116ef57600080fd5b6116f8826116c1565b9392505050565b60008083601f84011261171157600080fd5b50813567ffffffffffffffff81111561172957600080fd5b60208301915083602082850101111561174157600080fd5b9250929050565b60008060006040848603121561175d57600080fd5b83359250602084013567ffffffffffffffff81111561177b57600080fd5b611787868287016116ff565b9497909650939450505050565b6000815180845260005b818110156117ba5760208185018101518683018201520161179e565b506000602082860101526020601f19601f83011685010191505092915050565b60018060a01b038151168252602081015160208301526000604082015160a0604085015261180b60a0850182611794565b905060608301516060850152608083015160808501528091505092915050565b6020815260006116f860208301846117da565b6000806040838503121561185157600080fd5b50508035926020909101359150565b634e487b7160e01b600052602160045260246000fd5b6003811061189457634e487b7160e01b600052602160045260246000fd5b9052565b60006101408251845260208301516118bb60208601826001600160a01b03169052565b506040830151604085015260608301516118d86060860182611876565b5060808301518160808601526118f082860182611794565b91505060a083015184820360a086015261190a8282611794565b91505060c083015160c085015260e083015160e0850152610100808401518186015250610120808401516119418287018215159052565b5090949350505050565b6000602080830181845280855180835260408601915060408160051b870101925083870160005b828110156119a057603f1988860301845261198e858351611898565b94509285019290850190600101611972565b5092979650505050505050565b6000602080830181845280855180835260408601915060408160051b870101925083870160005b828110156119a057603f198886030184526119f08583516117da565b945092850192908501906001016119d4565b6020815260006116f86020830184611898565b60008060008060008060008060c0898b031215611a3157600080fd5b611a3a896116c1565b975060208901359650604089013560038110611a5557600080fd5b9550606089013567ffffffffffffffff80821115611a7257600080fd5b611a7e8c838d016116ff565b909750955060808b0135915080821115611a9757600080fd5b50611aa48b828c016116ff565b999c989b50969995989497949560a00135949350505050565b634e487b7160e01b600052603260045260246000fd5b600060208284031215611ae557600080fd5b815180151581146116f857600080fd5b634e487b7160e01b600052604160045260246000fd5b600181811c90821680611b1f57607f821691505b602082108103611b3f57634e487b7160e01b600052602260045260246000fd5b50919050565b601f82111561077557600081815260208120601f850160051c81016020861015611b6c5750805b601f850160051c820191505b81811015611b8b57828155600101611b78565b505050505050565b815167ffffffffffffffff811115611bad57611bad611af5565b611bc181611bbb8454611b0b565b84611b45565b602080601f831160018114611bf65760008415611bde5750858301515b600019600386901b1c1916600185901b178555611b8b565b600085815260208120601f198616915b82811015611c2557888601518255948401946001909101908401611c06565b5085821015611c435787850151600019600388901b60f8161c191681555b5050505050600190811b01905550565b634e487b7160e01b600052601160045260246000fd5b80820180821115610b9a57610b9a611c53565b81835281816020850137506000828201602090810191909152601f909101601f19169091010190565b848152606060208201526000611cbf606083018587611c7c565b905082604083015295945050505050565b81810381811115610b9a57610b9a611c53565b600060018201611cf557611cf5611c53565b5060010190565b8082028115828204841417610b9a57610b9a611c53565b600060208284031215611d2557600080fd5b5051919050565b888152611d3c6020820189611876565b60c060408201526000611d5360c08301888a611c7c565b8281036060840152611d66818789611c7c565b6080840195909552505060a00152969550505050505056fea2646970667358221220575d1cc4241c73105963e885e383caaa2cdc8473c3271d021fdcbb8e278d5fbd64736f6c63430008140033",
  "linkReferences": {},
  "deployedLinkReferences": {}
}