{
  "_format": "hh-sol-artifact-1",
  "contractName": "DCarbonToken",
  "sourceName": "contracts/tokens/DCarbonToken.sol",
  "abi": [
    {
      "inputs": [],
      "stateMutability": "nonpayable",
      "type": "constructor"
    },
    {
      "inputs": [],
      "name": "AccessControlBadConfirmation",
      "type": "error"
    },
    {
      "inputs": [
        {
          "internalType": "address",
          "name": "account",
          "type": "address"
        },
        {
          "internalType": "bytes32",
          "name": "neededRole",
          "type": "bytes32"
        }
      ],
      "name": "AccessControlUnauthorizedAccount",
      "type": "error"
    },
    {
      "inputs": [
        {
          "internalType": "address",
          "name": "spender",
          "type": "address"
        },
        {
          "internalType": "uint256",
          "name": "allowance",
          "type": "uint256"
        },
        {
          "internalType": "uint256",
          "name": "needed",
          "type": "uint256"
        }
      ],
      "name": "ERC20InsufficientAllowance",
      "type": "error"
    },
    {
      "inputs": [
        {
          "internalType": "address",
          "name": "sender",
          "type": "address"
        },
        {
          "internalType": "uint256",
          "name": "balance",
          "type": "uint256"
        },
        {
          "internalType": "uint256",
          "name": "needed",
          "type": "uint256"
        }
      ],
      "name": "ERC20InsufficientBalance",
      "type": "error"
    },
    {
      "inputs": [
        {
          "internalType": "address",
          "name": "approver",
          "type": "address"
        }
      ],
      "name": "ERC20InvalidApprover",
      "type": "error"
    },
    {
      "inputs": [
        {
          "internalType": "address",
          "name": "receiver",
          "type": "address"
        }
      ],
      "name": "ERC20InvalidReceiver",
      "type": "error"
    },
    {
      "inputs": [
        {
          "internalType": "address",
          "name": "sender",
          "type": "address"
        }
      ],
      "name": "ERC20InvalidSender",
      "type": "error"
    },
    {
      "inputs": [
        {
          "internalType": "address",
          "name": "spender",
          "type": "address"
        }
      ],
      "name": "ERC20InvalidSpender",
      "type": "error"
    },
    {
      "anonymous": false,
      "inputs": [
        {
          "indexed": true,
          "internalType": "address",
          "name": "owner",
          "type": "address"
        },
        {
          "indexed": true,
          "internalType": "address",
          "name": "spender",
          "type": "address"
        },
        {
          "indexed": false,
          "internalType": "uint256",
          "name": "value",
          "type": "uint256"
        }
      ],
      "name": "Approval",
      "type": "event"
    },
    {
      "anonymous": false,
      "inputs": [
        {
          "indexed": true,
          "internalType": "address",
          "name": "retiree",
          "type": "address"
        },
        {
          "indexed": false,
          "internalType": "uint256",
          "name": "amount",
          "type": "uint256"
        },
        {
          "indexed": false,
          "internalType": "string",
          "name": "reason",
          "type": "string"
        }
      ],
      "name": "CarbonRetired",
      "type": "event"
    },
    {
      "anonymous": false,
      "inputs": [
        {
          "indexed": true,
          "internalType": "bytes32",
          "name": "role",
          "type": "bytes32"
        },
        {
          "indexed": true,
          "internalType": "bytes32",
          "name": "previousAdminRole",
          "type": "bytes32"
        },
        {
          "indexed": true,
          "internalType": "bytes32",
          "name": "newAdminRole",
          "type": "bytes32"
        }
      ],
      "name": "RoleAdminChanged",
      "type": "event"
    },
    {
      "anonymous": false,
      "inputs": [
        {
          "indexed": true,
          "internalType": "bytes32",
          "name": "role",
          "type": "bytes32"
        },
        {
          "indexed": true,
          "internalType": "address",
          "name": "account",
          "type": "address"
        },
        {
          "indexed": true,
          "internalType": "address",
          "name": "sender",
          "type": "address"
        }
      ],
      "name": "RoleGranted",
      "type": "event"
    },
    {
      "anonymous": false,
      "inputs": [
        {
          "indexed": true,
          "internalType": "bytes32",
          "name": "role",
          "type": "bytes32"
        },
        {
          "indexed": true,
          "internalType": "address",
          "name": "account",
          "type": "address"
        },
        {
          "indexed": true,
          "internalType": "address",
          "name": "sender",
          "type": "address"
        }
      ],
      "name": "RoleRevoked",
      "type": "event"
    },
    {
      "anonymous": false,
      "inputs": [
        {
          "indexed": true,
          "internalType": "address",
          "name": "from",
          "type": "address"
        },
        {
          "indexed": true,
          "internalType": "address",
          "name": "to",
          "type": "address"
        },
        {
          "indexed": false,
          "internalType": "uint256",
          "name": "value",
          "type": "uint256"
        }
      ],
      "name": "Transfer",
      "type": "event"
    },
    {
      "inputs": [],
      "name": "DEFAULT_ADMIN_ROLE",
      "outputs": [
        {
          "internalType": "bytes32",
          "name": "",
          "type": "bytes32"
        }
      ],
      "stateMutability": "view",
      "type": "function"
    },
    {
      "inputs": [],
      "name": "MINTER_ROLE",
      "outputs": [
        {
          "internalType": "bytes32",
          "name": "",
          "type": "bytes32"
        }
      ],
      "stateMutability": "view",
      "type": "function"
    },
    {
      "inputs": [
        {
          "internalType": "address",
          "name": "owner",
          "type": "address"
        },
        {
          "internalType": "address",
          "name": "spender",
          "type": "address"
        }
      ],
      "name": "allowance",
      "outputs": [
        {
          "internalType": "uint256",
          "name": "",
          "type": "uint256"
        }
      ],
      "stateMutability": "view",
      "type": "function"
    },
    {
      "inputs": [
        {
          "internalType": "address",
          "name": "spender",
          "type": "address"
        },
        {
          "internalType": "uint256",
          "name": "value",
          "type": "uint256"
        }
      ],
      "name": "approve",
      "outputs": [
        {
          "internalType": "bool",
          "name": "",
          "type": "bool"
        }
      ],
      "stateMutability": "nonpayable",
      "type": "function"
    },
    {
      "inputs": [
        {
          "internalType": "address",
          "name": "account",
          "type": "address"
        }
      ],
      "name": "balanceOf",
      "outputs": [
        {
          "internalType": "uint256",
          "name": "",
          "type": "uint256"
        }
      ],
      "stateMutability": "view",
      "type": "function"
    },
    {
      "inputs": [
        {
          "internalType": "uint256",
          "name": "value",
          "type": "uint256"
        }
      ],
      "name": "burn",
      "outputs": [],
      "stateMutability": "nonpayable",
      "type": "function"
    },
    {
      "inputs": [
        {
          "internalType": "address",
          "name": "account",
          "type": "address"
        },
        {
          "internalType": "uint256",
          "name": "value",
          "type": "uint256"
        }
      ],
      "name": "burnFrom",
      "outputs": [],
      "stateMutability": "nonpayable",
      "type": "function"
    },
    {
      "inputs": [],
      "name": "decimals",
      "outputs": [
        {
          "internalType": "uint8",
          "name": "",
          "type": "uint8"
        }
      ],
      "stateMutability": "view",
      "type": "function"
    },
    {
      "inputs": [
        {
          "internalType": "bytes32",
          "name": "role",
          "type": "bytes32"
        }
      ],
      "name": "getRoleAdmin",
      "outputs": [
        {
          "internalType": "bytes32",
          "name": "",
          "type": "bytes32"
        }
      ],
      "stateMutability": "view",
      "type": "function"
    },
    {
      "inputs": [
        {
          "internalType": "bytes32",
          "name": "role",
          "type": "bytes32"
        },
        {
          "internalType": "address",
          "name": "account",
          "type": "address"
        }
      ],
      "name": "grantRole",
      "outputs": [],
      "stateMutability": "nonpayable",
      "type": "function"
    },
    {
      "inputs": [
        {
          "internalType": "bytes32",
          "name": "role",
          "type": "bytes32"
        },
        {
          "internalType": "address",
          "name": "account",
          "type": "address"
        }
      ],
      "name": "hasRole",
      "outputs": [
        {
          "internalType": "bool",
          "name": "",
          "type": "bool"
        }
      ],
      "stateMutability": "view",
      "type": "function"
    },
    {
      "inputs": [
        {
          "internalType": "address",
          "name": "to",
          "type": "address"
        },
        {
          "internalType": "uint256",
          "name": "amount",
          "type": "uint256"
        }
      ],
      "name": "mint",
      "outputs": [],
      "stateMutability": "nonpayable",
      "type": "function"
    },
    {
      "inputs": [],
      "name": "name",
      "outputs": [
        {
          "internalType": "string",
          "name": "",
          "type": "string"
        }
      ],
      "stateMutability": "view",
      "type": "function"
    },
    {
      "inputs": [
        {
          "internalType": "bytes32",
          "name": "role",
          "type": "bytes32"
        },
        {
          "internalType": "address",
          "name": "callerConfirmation",
          "type": "address"
        }
      ],
      "name": "renounceRole",
      "outputs": [],
      "stateMutability": "nonpayable",
      "type": "function"
    },
    {
      "inputs": [
        {
          "internalType": "uint256",
          "name": "amount",
          "type": "uint256"
        },
        {
          "internalType": "string",
          "name": "reason",
          "type": "string"
        }
      ],
      "name": "retire",
      "outputs": [],
      "stateMutability": "nonpayable",
      "type": "function"
    },
    {
      "inputs": [
        {
          "internalType": "bytes32",
          "name": "role",
          "type": "bytes32"
        },
        {
          "internalType": "address",
          "name": "account",
          "type": "address"
        }
      ],
      "name": "revokeRole",
      "outputs": [],
      "stateMutability": "nonpayable",
      "type": "function"
    },
    {
      "inputs": [
        {
          "internalType": "bytes4",
          "name": "interfaceId",
          "type": "bytes4"
        }
      ],
      "name": "supportsInterface",
      "outputs": [
        {
          "internalType": "bool",
          "name": "",
          "type": "bool"
        }
      ],
      "stateMutability": "view",
      "type": "function"
    },
    {
      "inputs": [],
      "name": "symbol",
      "outputs": [
        {
          "internalType": "string",
          "name": "",
          "type": "string"
        }
      ],
      "stateMutability": "view",
      "type": "function"
    },
    {
      "inputs": [],
      "name": "totalSupply",
      "outputs": [
        {
          "internalType": "uint256",
          "name": "",
          "type": "uint256"
        }
      ],
      "stateMutability": "view",
      "type": "function"
    },
    {
      "inputs": [
        {
          "internalType": "address",
          "name": "to",
          "type": "address"
        },
        {
          "internalType": "uint256",
          "name": "value",
          "type": "uint256"
        }
      ],
      "name": "transfer",
      "outputs": [
        {
          "internalType": "bool",
          "name": "",
          "type": "bool"
        }
      ],
      "stateMutability": "nonpayable",
      "type": "function"
    },
    {
      "inputs": [
        {
          "internalType": "address",
          "name": "from",
          "type": "address"
        },
        {
          "internalType": "address",
          "name": "to",
          "type": "address"
        },
        {
          "internalType": "uint256",
          "name": "value",
          "type": "uint256"
        }
      ],
      "name": "transferFrom",
      "outputs": [
        {
          "internalType": "bool",
          "name": "",
          "type": "bool"
        }
      ],
      "stateMutability": "nonpayable",
      "type": "function"
    }
  ],
  "bytecode": "0x60806040523480156200001157600080fd5b506040518060400160405280601281526020017119131d5e8810d85c989bdb8810dc99591a5d60721b815250604051806040016040528060078152602001663221a0a92127a760c91b81525081600390816200006e91906200021b565b5060046200007d82826200021b565b506200008f91506000905033620000c3565b50620000bc7f9f2df0fed2c77648de5860a4cc508cd0818c85b8b8a1ab4ceeef8d981c8956a633620000c3565b50620002e7565b60008281526005602090815260408083206001600160a01b038516845290915281205460ff166200016c5760008381526005602090815260408083206001600160a01b03861684529091529020805460ff19166001179055620001233390565b6001600160a01b0316826001600160a01b0316847f2f8788117e7eff1d82e926ec794901d17c78024a50270940304540a733656f0d60405160405180910390a450600162000170565b5060005b92915050565b634e487b7160e01b600052604160045260246000fd5b600181811c90821680620001a157607f821691505b602082108103620001c257634e487b7160e01b600052602260045260246000fd5b50919050565b601f8211156200021657600081815260208120601f850160051c81016020861015620001f15750805b601f850160051c820191505b818110156200021257828155600101620001fd565b5050505b505050565b81516001600160401b0381111562000237576200023762000176565b6200024f816200024884546200018c565b84620001c8565b602080601f8311600181146200028757600084156200026e5750858301515b600019600386901b1c1916600185901b17855562000212565b600085815260208120601f198616915b82811015620002b85788860151825594840194600190910190840162000297565b5085821015620002d75787850151600019600388901b60f8161c191681555b5050505050600190811b01905550565b610d1380620002f76000396000f3fe608060405234801561001057600080fd5b50600436106101375760003560e01c806342966c68116100b857806395d89b411161007c57806395d89b4114610293578063a217fddf1461029b578063a9059cbb146102a3578063d5391393146102b6578063d547741f146102dd578063dd62ed3e146102f057600080fd5b806342966c681461021e5780635f09ffbd1461023157806370a082311461024457806379cc67901461026d57806391d148541461028057600080fd5b8063248a9ca3116100ff578063248a9ca3146101b15780632f2ff15d146101d4578063313ce567146101e957806336568abe146101f857806340c10f191461020b57600080fd5b806301ffc9a71461013c57806306fdde0314610164578063095ea7b31461017957806318160ddd1461018c57806323b872dd1461019e575b600080fd5b61014f61014a366004610a45565b610329565b60405190151581526020015b60405180910390f35b61016c610360565b60405161015b9190610a76565b61014f610187366004610ae0565b6103f2565b6002545b60405190815260200161015b565b61014f6101ac366004610b0a565b61040a565b6101906101bf366004610b46565b60009081526005602052604090206001015490565b6101e76101e2366004610b5f565b61042e565b005b6040516012815260200161015b565b6101e7610206366004610b5f565b610459565b6101e7610219366004610ae0565b610491565b6101e761022c366004610b46565b6104c5565b6101e761023f366004610b8b565b6104d2565b610190610252366004610c07565b6001600160a01b031660009081526020819052604090205490565b6101e761027b366004610ae0565b610526565b61014f61028e366004610b5f565b61053f565b61016c61056a565b610190600081565b61014f6102b1366004610ae0565b610579565b6101907f9f2df0fed2c77648de5860a4cc508cd0818c85b8b8a1ab4ceeef8d981c8956a681565b6101e76102eb366004610b5f565b610587565b6101906102fe366004610c22565b6001600160a01b03918216600090815260016020908152604080832093909416825291909152205490565b60006001600160e01b03198216637965db0b60e01b148061035a57506301ffc9a760e01b6001600160e01b03198316145b92915050565b60606003805461036f90610c4c565b80601f016020809104026020016040519081016040528092919081815260200182805461039b90610c4c565b80156103e85780601f106103bd576101008083540402835291602001916103e8565b820191906000526020600020905b8154815290600101906020018083116103cb57829003601f168201915b5050505050905090565b6000336104008185856105ac565b5060019392505050565b6000336104188582856105b9565b610423858585610637565b506001949350505050565b60008281526005602052604090206001015461044981610696565b61045383836106a0565b50505050565b6001600160a01b03811633146104825760405163334bd91960e11b815260040160405180910390fd5b61048c8282610734565b505050565b7f9f2df0fed2c77648de5860a4cc508cd0818c85b8b8a1ab4ceeef8d981c8956a66104bb81610696565b61048c83836107a1565b6104cf33826107d7565b50565b6104dc33846107d7565b336001600160a01b03167feaef40518b201cf32e76451e3b7330959b7471c30e7babb1935b97426dd30b5e84848460405161051993929190610c86565b60405180910390a2505050565b6105318233836105b9565b61053b82826107d7565b5050565b60009182526005602090815260408084206001600160a01b0393909316845291905290205460ff1690565b60606004805461036f90610c4c565b600033610400818585610637565b6000828152600560205260409020600101546105a281610696565b6104538383610734565b61048c838383600161080d565b6001600160a01b03838116600090815260016020908152604080832093861683529290522054600019811015610453578181101561062857604051637dc7a0d960e11b81526001600160a01b038416600482015260248101829052604481018390526064015b60405180910390fd5b6104538484848403600061080d565b6001600160a01b03831661066157604051634b637e8f60e11b81526000600482015260240161061f565b6001600160a01b03821661068b5760405163ec442f0560e01b81526000600482015260240161061f565b61048c8383836108e2565b6104cf8133610a0c565b60006106ac838361053f565b61072c5760008381526005602090815260408083206001600160a01b03861684529091529020805460ff191660011790556106e43390565b6001600160a01b0316826001600160a01b0316847f2f8788117e7eff1d82e926ec794901d17c78024a50270940304540a733656f0d60405160405180910390a450600161035a565b50600061035a565b6000610740838361053f565b1561072c5760008381526005602090815260408083206001600160a01b0386168085529252808320805460ff1916905551339286917ff6391f5c32d9c69d2a47ea670b442974b53935d1edc7fd64eb21e047a839171b9190a450600161035a565b6001600160a01b0382166107cb5760405163ec442f0560e01b81526000600482015260240161061f565b61053b600083836108e2565b6001600160a01b03821661080157604051634b637e8f60e11b81526000600482015260240161061f565b61053b826000836108e2565b6001600160a01b0384166108375760405163e602df0560e01b81526000600482015260240161061f565b6001600160a01b03831661086157604051634a1406b160e11b81526000600482015260240161061f565b6001600160a01b038085166000908152600160209081526040808320938716835292905220829055801561045357826001600160a01b0316846001600160a01b03167f8c5be1e5ebec7d5bd14f71427d1e84f3dd0314c0f7b2291e5b200ac8c7c3b925846040516108d491815260200190565b60405180910390a350505050565b6001600160a01b03831661090d5780600260008282546109029190610cbc565b9091555061097f9050565b6001600160a01b038316600090815260208190526040902054818110156109605760405163391434e360e21b81526001600160a01b0385166004820152602481018290526044810183905260640161061f565b6001600160a01b03841660009081526020819052604090209082900390555b6001600160a01b03821661099b576002805482900390556109ba565b6001600160a01b03821660009081526020819052604090208054820190555b816001600160a01b0316836001600160a01b03167fddf252ad1be2c89b69c2b068fc378daa952ba7f163c4a11628f55a4df523b3ef836040516109ff91815260200190565b60405180910390a3505050565b610a16828261053f565b61053b5760405163e2517d3f60e01b81526001600160a01b03821660048201526024810183905260440161061f565b600060208284031215610a5757600080fd5b81356001600160e01b031981168114610a6f57600080fd5b9392505050565b600060208083528351808285015260005b81811015610aa357858101830151858201604001528201610a87565b506000604082860101526040601f19601f8301168501019250505092915050565b80356001600160a01b0381168114610adb57600080fd5b919050565b60008060408385031215610af357600080fd5b610afc83610ac4565b946020939093013593505050565b600080600060608486031215610b1f57600080fd5b610b2884610ac4565b9250610b3660208501610ac4565b9150604084013590509250925092565b600060208284031215610b5857600080fd5b5035919050565b60008060408385031215610b7257600080fd5b82359150610b8260208401610ac4565b90509250929050565b600080600060408486031215610ba057600080fd5b83359250602084013567ffffffffffffffff80821115610bbf57600080fd5b818601915086601f830112610bd357600080fd5b813581811115610be257600080fd5b876020828501011115610bf457600080fd5b6020830194508093505050509250925092565b600060208284031215610c1957600080fd5b610a6f82610ac4565b60008060408385031215610c3557600080fd5b610c3e83610ac4565b9150610b8260208401610ac4565b600181811c90821680610c6057607f821691505b602082108103610c8057634e487b7160e01b600052602260045260246000fd5b50919050565b83815260406020820152816040820152818360608301376000818301606090810191909152601f909201601f1916010192915050565b8082018082111561035a57634e487b7160e01b600052601160045260246000fdfea2646970667358221220486c3606b5d71658dd05b1174c732f17bc3b27ebaf86e07c75d839abde08cc6364736f6c63430008140033",
  "linkReferences": {},
  "deployedLinkReferences": {}
}