{
  "_format": "hh-sol-artifact-1",
  "contractName": "DLuzToken",
  "sourceName": "contracts/tokens/DLuzToken.sol",
  "abi": [
    {
      "inputs": [
        {
          "internalType": "address",
          "name": "initialOwner",
          "type": "address"
        }
      ],
      "stateMutability": "nonpayable",
      "type": "constructor"
    },
    {
      "inputs": [],
      "name": "ECDSAInvalidSignature",
      "type": "error"
    },
    {
      "inputs": [
        {
          "internalType": "uint256",
          "name": "length",
          "type": "uint256"
        }
      ],
      "name": "ECDSAInvalidSignatureLength",
      "type": "error"
    },
    {
      "inputs": [
        {
          "internalType": "bytes32",
          "name": "s",
          "type": "bytes32"
        }
      ],
      "name": "ECDSAInvalidSignatureS",
      "type": "error"
    },
    {
      "inputs": [
        {
          "internalType": "address",
          "name": "spender",
          "type": "address"
        },
        {
          "internalType": "uint256",
          "name": "allowance",
          "type": "uint256"
        },
        {
          "internalType": "uint256",
          "name": "needed",
          "type": "uint256"
        }
      ],
      "name": "ERC20InsufficientAllowance",
      "type": "error"
    },
    {
      "inputs": [
        {
          "internalType": "address",
          "name": "sender",
          "type": "address"
        },
        {
          "internalType": "uint256",
          "name": "balance",
          "type": "uint256"
        },
        {
          "internalType": "uint256",
          "name": "needed",
          "type": "uint256"
        }
      ],
      "name": "ERC20InsufficientBalance",
      "type": "error"
    },
    {
      "inputs": [
        {
          "internalType": "address",
          "name": "approver",
          "type": "address"
        }
      ],
      "name": "ERC20InvalidApprover",
      "type": "error"
    },
    {
      "inputs": [
        {
          "internalType": "address",
          "name": "receiver",
          "type": "address"
        }
      ],
      "name": "ERC20InvalidReceiver",
      "type": "error"
    },
    {
      "inputs": [
        {
          "internalType": "address",
          "name": "sender",
          "type": "address"
        }
      ],
      "name": "ERC20InvalidSender",
      "type": "error"
    },
    {
      "inputs": [
        {
          "internalType": "address",
          "name": "spender",
          "type": "address"
        }
      ],
      "name": "ERC20InvalidSpender",
      "type": "error"
    },
    {
      "inputs": [
        {
          "internalType": "uint256",
          "name": "deadline",
          "type": "uint256"
        }
      ],
      "name": "ERC2612ExpiredSignature",
      "type": "error"
    },
    {
      "inputs": [
        {
          "internalType": "address",
          "name": "signer",
          "type": "address"
        },
        {
          "internalType": "address",
          "name": "owner",
          "type": "address"
        }
      ],
      "name": "ERC2612InvalidSigner",
      "type": "error"
    },
    {
      "inputs": [
        {
          "internalType": "uint256",
          "name": "requested",
          "type": "uint256"
        },
        {
          "internalType": "uint256",
          "name": "available",
          "type": "uint256"
        }
      ],
      "name": "ExceedsMaxSupply",
      "type": "error"
    },
    {
      "inputs": [
        {
          "internalType": "address",
          "name": "account",
          "type": "address"
        },
        {
          "internalType": "uint256",
          "name": "currentNonce",
          "type": "uint256"
        }
      ],
      "name": "InvalidAccountNonce",
      "type": "error"
    },
    {
      "inputs": [],
      "name": "InvalidShortString",
      "type": "error"
    },
    {
      "inputs": [
        {
          "internalType": "address",
          "name": "owner",
          "type": "address"
        }
      ],
      "name": "OwnableInvalidOwner",
      "type": "error"
    },
    {
      "inputs": [
        {
          "internalType": "address",
          "name": "account",
          "type": "address"
        }
      ],
      "name": "OwnableUnauthorizedAccount",
      "type": "error"
    },
    {
      "inputs": [
        {
          "internalType": "string",
          "name": "str",
          "type": "string"
        }
      ],
      "name": "StringTooLong",
      "type": "error"
    },
    {
      "anonymous": false,
      "inputs": [
        {
          "indexed": true,
          "internalType": "address",
          "name": "owner",
          "type": "address"
        },
        {
          "indexed": true,
          "internalType": "address",
          "name": "spender",
          "type": "address"
        },
        {
          "indexed": false,
          "internalType": "uint256",
          "name": "value",
          "type": "uint256"
        }
      ],
      "name": "Approval",
      "type": "event"
    },
    {
      "anonymous": false,
      "inputs": [],
      "name": "EIP712DomainChanged",
      "type": "event"
    },
    {
      "anonymous": false,
      "inputs": [
        {
          "indexed": true,
          "internalType": "address",
          "name": "previousOwner",
          "type": "address"
        },
        {
          "indexed": true,
          "internalType": "address",
          "name": "newOwner",
          "type": "address"
        }
      ],
      "name": "OwnershipTransferred",
      "type": "event"
    },
    {
      "anonymous": false,
      "inputs": [
        {
          "indexed": true,
          "internalType": "address",
          "name": "from",
          "type": "address"
        },
        {
          "indexed": true,
          "internalType": "address",
          "name": "to",
          "type": "address"
        },
        {
          "indexed": false,
          "internalType": "uint256",
          "name": "value",
          "type": "uint256"
        }
      ],
      "name": "Transfer",
      "type": "event"
    },
    {
      "inputs": [],
      "name": "DOMAIN_SEPARATOR",
      "outputs": [
        {
          "internalType": "bytes32",
          "name": "",
          "type": "bytes32"
        }
      ],
      "stateMutability": "view",
      "type": "function"
    },
    {
      "inputs": [],
      "name": "INITIAL_SUPPLY",
      "outputs": [
        {
          "internalType": "uint256",
          "name": "",
          "type": "uint256"
        }
      ],
      "stateMutability": "view",
      "type": "function"
    },
    {
      "inputs": [],
      "name": "MAX_SUPPLY",
      "outputs": [
        {
          "internalType": "uint256",
          "name": "",
          "type": "uint256"
        }
      ],
      "stateMutability": "view",
      "type": "function"
    },
    {
      "inputs": [
        {
          "internalType": "address",
          "name": "owner",
          "type": "address"
        },
        {
          "internalType": "address",
          "name": "spender",
          "type": "address"
        }
      ],
      "name": "allowance",
      "outputs": [
        {
          "internalType": "uint256",
          "name": "",
          "type": "uint256"
        }
      ],
      "stateMutability": "view",
      "type": "function"
    },
    {
      "inputs": [
        {
          "internalType": "address",
          "name": "spender",
          "type": "address"
        },
        {
          "internalType": "uint256",
          "name": "value",
          "type": "uint256"
        }
      ],
      "name": "approve",
      "outputs": [
        {
          "internalType": "bool",
          "name": "",
          "type": "bool"
        }
      ],
      "stateMutability": "nonpayable",
      "type": "function"
    },
    {
      "inputs": [
        {
          "internalType": "address",
          "name": "account",
          "type": "address"
        }
      ],
      "name": "balanceOf",
      "outputs": [
        {
          "internalType": "uint256",
          "name": "",
          "type": "uint256"
        }
      ],
      "stateMutability": "view",
      "type": "function"
    },
    {
      "inputs": [
        {
          "internalType": "uint256",
          "name": "value",
          "type": "uint256"
        }
      ],
      "name": "burn",
      "outputs": [],
      "stateMutability": "nonpayable",
      "type": "function"
    },
    {
      "inputs": [
        {
          "internalType": "address",
          "name": "account",
          "type": "address"
        },
        {
          "internalType": "uint256",
          "name": "value",
          "type": "uint256"
        }
      ],
      "name": "burnFrom",
      "outputs": [],
      "stateMutability": "nonpayable",
      "type": "function"
    },
    {
      "inputs": [],
      "name": "decimals",
      "outputs": [
        {
          "internalType": "uint8",
          "name": "",
          "type": "uint8"
        }
      ],
      "stateMutability": "view",
      "type": "function"
    },
    {
      "inputs": [],
      "name": "eip712Domain",
      "outputs": [
        {
          "internalType": "bytes1",
          "name": "fields",
          "type": "bytes1"
        },
        {
          "internalType": "string",
          "name": "name",
          "type": "string"
        },
        {
          "internalType": "string",
          "name": "version",
          "type": "string"
        },
        {
          "internalType": "uint256",
          "name": "chainId",
          "type": "uint256"
        },
        {
          "internalType": "address",
          "name": "verifyingContract",
          "type": "address"
        },
        {
          "internalType": "bytes32",
          "name": "salt",
          "type": "bytes32"
        },
        {
          "internalType": "uint256[]",
          "name": "extensions",
          "type": "uint256[]"
        }
      ],
      "stateMutability": "view",
      "type": "function"
    },
    {
      "inputs": [
        {
          "internalType": "address",
          "name": "to",
          "type": "address"
        },
        {
          "internalType": "uint256",
          "name": "amount",
          "type": "uint256"
        }
      ],
      "name": "mint",
      "outputs": [],
      "stateMutability": "nonpayable",
      "type": "function"
    },
    {
      "inputs": [],
      "name": "name",
      "outputs": [
        {
          "internalType": "string",
          "name": "",
          "type": "string"
        }
      ],
      "stateMutability": "view",
      "type": "function"
    },
    {
      "inputs": [
        {
          "internalType": "address",
          "name": "owner",
          "type": "address"
        }
      ],
      "name": "nonces",
      "outputs": [
        {
          "internalType": "uint256",
          "name": "",
          "type": "uint256"
        }
      ],
      "stateMutability": "view",
      "type": "function"
    },
    {
      "inputs": [],
      "name": "owner",
      "outputs": [
        {
          "internalType": "address",
          "name": "",
          "type": "address"
        }
      ],
      "stateMutability": "view",
      "type": "function"
    },
    {
      "inputs": [
        {
          "internalType": "address",
          "name": "owner",
          "type": "address"
        },
        {
          "internalType": "address",
          "name": "spender",
          "type": "address"
        },
        {
          "internalType": "uint256",
          "name": "value",
          "type": "uint256"
        },
        {
          "internalType": "uint256",
          "name": "deadline",
          "type": "uint256"
        },
        {
          "internalType": "uint8",
          "name": "v",
          "type": "uint8"
        },
        {
          "internalType": "bytes32",
          "name": "r",
          "type": "bytes32"
        },
        {
          "internalType": "bytes32",
          "name": "s",
          "type": "bytes32"
        }
      ],
      "name": "permit",
      "outputs": [],
      "stateMutability": "nonpayable",
      "type": "function"
    },
    {
      "inputs": [],
      "name": "remainingMintable",
      "outputs": [
        {
          "internalType": "uint256",
          "name": "",
          "type": "uint256"
        }
      ],
      "stateMutability": "view",
      "type": "function"
    },
    {
      "inputs": [],
      "name": "renounceOwnership",
      "outputs": [],
      "stateMutability": "nonpayable",
      "type": "function"
    },
    {
      "inputs": [],
      "name": "symbol",
      "outputs": [
        {
          "internalType": "string",
          "name": "",
          "type": "string"
        }
      ],
      "stateMutability": "view",
      "type": "function"
    },
    {
      "inputs": [],
      "name": "totalSupply",
      "outputs": [
        {
          "internalType": "uint256",
          "name": "",
          "type": "uint256"
        }
      ],
      "stateMutability": "view",
      "type": "function"
    },
    {
      "inputs": [
        {
          "internalType": "address",
          "name": "to",
          "type": "address"
        },
        {
          "internalType": "uint256",
          "name": "value",
          "type": "uint256"
        }
      ],
      "name": "transfer",
      "outputs": [
        {
          "internalType": "bool",
          "name": "",
          "type": "bool"
        }
      ],
      "stateMutability": "nonpayable",
      "type": "function"
    },
    {
      "inputs": [
        {
          "internalType": "address",
          "name": "from",
          "type": "address"
        },
        {
          "internalType": "address",
          "name": "to",
          "type": "address"
        },
        {
          "internalType": "uint256",
          "name": "value",
          "type": "uint256"
        }
      ],
      "name": "transferFrom",
      "outputs": [
        {
          "internalType": "bool",
          "name": "",
          "type": "bool"
        }
      ],
      "stateMutability": "nonpayable",
      "type": "function"
    },
    {
      "inputs": [
        {
          "internalType": "address",
          "name": "newOwner",
          "type": "address"
        }
      ],
      "name": "transferOwnership",
      "outputs": [],
      "stateMutability": "nonpayable",
      "type": "function"
    }
  ],
  "bytecode": "0x6101606040523480156200001257600080fd5b50604051620018f1380380620018f1833981016040819052620000359162000428565b806040518060400160405280600a81526020016932263abd102a37b5b2b760b11b81525080604051806040016040528060018152602001603160f81b8152506040518060400160405280600a81526020016932263abd102a37b5b2b760b11b8152506040518060400160405280600481526020016322262aad60e11b8152508160039081620000c59190620004ff565b506004620000d48282620004ff565b50620000e691508390506005620001e9565b61012052620000f7816006620001e9565b61014052815160208084019190912060e052815190820120610100524660a0526200018560e05161010051604080517f8b73c3c69bb8fe3d512ecc4cf759cc79239f7b179b0ffacaa9a75d522b39400f60208201529081019290925260608201524660808201523060a082015260009060c00160405160208183030381529060405280519060200120905090565b60805250503060c052506001600160a01b038116620001bf57604051631e4fbdf760e01b8152600060048201526024015b60405180910390fd5b620001ca8162000222565b50620001e2816a18d0bf423c03d8de00000062000274565b5062000662565b600060208351101562000209576200020183620002b2565b90506200021c565b81620002168482620004ff565b5060ff90505b92915050565b600880546001600160a01b038381166001600160a01b0319831681179093556040519116919082907f8be0079c531659141344cd1fd0a4f28419497f9722a3daafe3b4186f6b6457e090600090a35050565b6001600160a01b038216620002a05760405163ec442f0560e01b815260006004820152602401620001b6565b620002ae60008383620002f5565b5050565b600080829050601f81511115620002e0578260405163305a27a960e01b8152600401620001b69190620005cb565b8051620002ed826200061b565b179392505050565b6001600160a01b0383166200032457806002600082825462000318919062000640565b90915550620003989050565b6001600160a01b03831660009081526020819052604090205481811015620003795760405163391434e360e21b81526001600160a01b03851660048201526024810182905260448101839052606401620001b6565b6001600160a01b03841660009081526020819052604090209082900390555b6001600160a01b038216620003b657600280548290039055620003d5565b6001600160a01b03821660009081526020819052604090208054820190555b816001600160a01b0316836001600160a01b03167fddf252ad1be2c89b69c2b068fc378daa952ba7f163c4a11628f55a4df523b3ef836040516200041b91815260200190565b60405180910390a3505050565b6000602082840312156200043b57600080fd5b81516001600160a01b03811681146200045357600080fd5b9392505050565b634e487b7160e01b600052604160045260246000fd5b600181811c908216806200048557607f821691505b602082108103620004a657634e487b7160e01b600052602260045260246000fd5b50919050565b601f821115620004fa57600081815260208120601f850160051c81016020861015620004d55750805b601f850160051c820191505b81811015620004f657828155600101620004e1565b5050505b505050565b81516001600160401b038111156200051b576200051b6200045a565b62000533816200052c845462000470565b84620004ac565b602080601f8311600181146200056b5760008415620005525750858301515b600019600386901b1c1916600185901b178555620004f6565b600085815260208120601f198616915b828110156200059c578886015182559484019460019091019084016200057b565b5085821015620005bb5787850151600019600388901b60f8161c191681555b5050505050600190811b01905550565b600060208083528351808285015260005b81811015620005fa57858101830151858201604001528201620005dc565b506000604082860101526040601f19601f8301168501019250505092915050565b80516020808301519190811015620004a65760001960209190910360031b1b16919050565b808201808211156200021c57634e487b7160e01b600052601160045260246000fd5b60805160a05160c05160e051610100516101205161014051611234620006bd6000396000610a06015260006109d9015260006108960152600061086e015260006107c9015260006107f30152600061081d01526112346000f3fe608060405234801561001057600080fd5b50600436106101425760003560e01c8063715018a6116100b857806395d89b411161007c57806395d89b411461029d578063a9059cbb146102a5578063d505accf146102b8578063dd62ed3e146102cb578063f2fde38b14610304578063f76e95e51461031757600080fd5b8063715018a61461023957806379cc6790146102415780637ecebe001461025457806384b0196e146102675780638da5cb5b1461028257600080fd5b8063313ce5671161010a578063313ce567146101bf57806332cb6b0c146101ce5780633644e515146101e057806340c10f19146101e857806342966c68146101fd57806370a082311461021057600080fd5b806306fdde0314610147578063095ea7b31461016557806318160ddd1461018857806323b872dd1461019a5780632ff2e9dc146101ad575b600080fd5b61014f61031f565b60405161015c9190610f66565b60405180910390f35b610178610173366004610f9c565b6103b1565b604051901515815260200161015c565b6002545b60405190815260200161015c565b6101786101a8366004610fc6565b6103cb565b61018c6a18d0bf423c03d8de00000081565b6040516012815260200161015c565b61018c6a52b7d2dcc80cd2e400000081565b61018c6103ef565b6101fb6101f6366004610f9c565b6103fe565b005b6101fb61020b366004611002565b610480565b61018c61021e36600461101b565b6001600160a01b031660009081526020819052604090205490565b6101fb61048d565b6101fb61024f366004610f9c565b6104a1565b61018c61026236600461101b565b6104b6565b61026f6104d4565b60405161015c9796959493929190611036565b6008546040516001600160a01b03909116815260200161015c565b61014f61051a565b6101786102b3366004610f9c565b610529565b6101fb6102c63660046110cc565b610537565b61018c6102d936600461113f565b6001600160a01b03918216600090815260016020908152604080832093909416825291909152205490565b6101fb61031236600461101b565b610671565b61018c6106ac565b60606003805461032e90611172565b80601f016020809104026020016040519081016040528092919081815260200182805461035a90611172565b80156103a75780601f1061037c576101008083540402835291602001916103a7565b820191906000526020600020905b81548152906001019060200180831161038a57829003601f168201915b5050505050905090565b6000336103bf8185856106cc565b60019150505b92915050565b6000336103d98582856106de565b6103e485858561075d565b506001949350505050565b60006103f96107bc565b905090565b6104066108e7565b6a52b7d2dcc80cd2e40000008161041c60025490565b61042691906111c2565b1115610472578061043660025490565b61044b906a52b7d2dcc80cd2e40000006111d5565b60405163adc3cee560e01b8152600481019290925260248201526044015b60405180910390fd5b61047c8282610914565b5050565b61048a338261094a565b50565b6104956108e7565b61049f6000610980565b565b6104ac8233836106de565b61047c828261094a565b6001600160a01b0381166000908152600760205260408120546103c5565b6000606080600080600060606104e86109d2565b6104f06109ff565b60408051600080825260208201909252600f60f81b9b939a50919850469750309650945092509050565b60606004805461032e90611172565b6000336103bf81858561075d565b8342111561055b5760405163313c898160e11b815260048101859052602401610469565b60007f6e71edae12b1b97f4d1f60370fef10105fa2faae0126114a169c64845d6126c98888886105a88c6001600160a01b0316600090815260076020526040902080546001810190915590565b6040805160208101969096526001600160a01b0394851690860152929091166060840152608083015260a082015260c0810186905260e001604051602081830303815290604052805190602001209050600061060382610a2c565b9050600061061382878787610a59565b9050896001600160a01b0316816001600160a01b03161461065a576040516325c0072360e11b81526001600160a01b0380831660048301528b166024820152604401610469565b6106658a8a8a6106cc565b50505050505050505050565b6106796108e7565b6001600160a01b0381166106a357604051631e4fbdf760e01b815260006004820152602401610469565b61048a81610980565b60006106b760025490565b6103f9906a52b7d2dcc80cd2e40000006111d5565b6106d98383836001610a87565b505050565b6001600160a01b03838116600090815260016020908152604080832093861683529290522054600019811015610757578181101561074857604051637dc7a0d960e11b81526001600160a01b03841660048201526024810182905260448101839052606401610469565b61075784848484036000610a87565b50505050565b6001600160a01b03831661078757604051634b637e8f60e11b815260006004820152602401610469565b6001600160a01b0382166107b15760405163ec442f0560e01b815260006004820152602401610469565b6106d9838383610b5c565b6000306001600160a01b037f00000000000000000000000000000000000000000000000000000000000000001614801561081557507f000000000000000000000000000000000000000000000000000000000000000046145b1561083f57507f000000000000000000000000000000000000000000000000000000000000000090565b6103f9604080517f8b73c3c69bb8fe3d512ecc4cf759cc79239f7b179b0ffacaa9a75d522b39400f60208201527f0000000000000000000000000000000000000000000000000000000000000000918101919091527f000000000000000000000000000000000000000000000000000000000000000060608201524660808201523060a082015260009060c00160405160208183030381529060405280519060200120905090565b6008546001600160a01b0316331461049f5760405163118cdaa760e01b8152336004820152602401610469565b6001600160a01b03821661093e5760405163ec442f0560e01b815260006004820152602401610469565b61047c60008383610b5c565b6001600160a01b03821661097457604051634b637e8f60e11b815260006004820152602401610469565b61047c82600083610b5c565b600880546001600160a01b038381166001600160a01b0319831681179093556040519116919082907f8be0079c531659141344cd1fd0a4f28419497f9722a3daafe3b4186f6b6457e090600090a35050565b60606103f97f00000000000000000000000000000000000000000000000000000000000000006005610c86565b60606103f97f00000000000000000000000000000000000000000000000000000000000000006006610c86565b60006103c5610a396107bc565b8360405161190160f01b8152600281019290925260228201526042902090565b600080600080610a6b88888888610d31565b925092509250610a7b8282610e00565b50909695505050505050565b6001600160a01b038416610ab15760405163e602df0560e01b815260006004820152602401610469565b6001600160a01b038316610adb57604051634a1406b160e11b815260006004820152602401610469565b6001600160a01b038085166000908152600160209081526040808320938716835292905220829055801561075757826001600160a01b0316846001600160a01b03167f8c5be1e5ebec7d5bd14f71427d1e84f3dd0314c0f7b2291e5b200ac8c7c3b92584604051610b4e91815260200190565b60405180910390a350505050565b6001600160a01b038316610b87578060026000828254610b7c91906111c2565b90915550610bf99050565b6001600160a01b03831660009081526020819052604090205481811015610bda5760405163391434e360e21b81526001600160a01b03851660048201526024810182905260448101839052606401610469565b6001600160a01b03841660009081526020819052604090209082900390555b6001600160a01b038216610c1557600280548290039055610c34565b6001600160a01b03821660009081526020819052604090208054820190555b816001600160a01b0316836001600160a01b03167fddf252ad1be2c89b69c2b068fc378daa952ba7f163c4a11628f55a4df523b3ef83604051610c7991815260200190565b60405180910390a3505050565b606060ff8314610ca057610c9983610eb9565b90506103c5565b818054610cac90611172565b80601f0160208091040260200160405190810160405280929190818152602001828054610cd890611172565b8015610d255780601f10610cfa57610100808354040283529160200191610d25565b820191906000526020600020905b815481529060010190602001808311610d0857829003601f168201915b505050505090506103c5565b600080807f7fffffffffffffffffffffffffffffff5d576e7357a4501ddfe92f46681b20a0841115610d6c5750600091506003905082610df6565b604080516000808252602082018084528a905260ff891692820192909252606081018790526080810186905260019060a0016020604051602081039080840390855afa158015610dc0573d6000803e3d6000fd5b5050604051601f1901519150506001600160a01b038116610dec57506000925060019150829050610df6565b9250600091508190505b9450945094915050565b6000826003811115610e1457610e146111e8565b03610e1d575050565b6001826003811115610e3157610e316111e8565b03610e4f5760405163f645eedf60e01b815260040160405180910390fd5b6002826003811115610e6357610e636111e8565b03610e845760405163fce698f760e01b815260048101829052602401610469565b6003826003811115610e9857610e986111e8565b0361047c576040516335e2f38360e21b815260048101829052602401610469565b60606000610ec683610ef8565b604080516020808252818301909252919250600091906020820181803683375050509182525060208101929092525090565b600060ff8216601f8111156103c557604051632cd44ac360e21b815260040160405180910390fd5b6000815180845260005b81811015610f4657602081850181015186830182015201610f2a565b506000602082860101526020601f19601f83011685010191505092915050565b602081526000610f796020830184610f20565b9392505050565b80356001600160a01b0381168114610f9757600080fd5b919050565b60008060408385031215610faf57600080fd5b610fb883610f80565b946020939093013593505050565b600080600060608486031215610fdb57600080fd5b610fe484610f80565b9250610ff260208501610f80565b9150604084013590509250925092565b60006020828403121561101457600080fd5b5035919050565b60006020828403121561102d57600080fd5b610f7982610f80565b60ff60f81b881681526000602060e08184015261105660e084018a610f20565b8381036040850152611068818a610f20565b606085018990526001600160a01b038816608086015260a0850187905284810360c0860152855180825283870192509083019060005b818110156110ba5783518352928401929184019160010161109e565b50909c9b505050505050505050505050565b600080600080600080600060e0888a0312156110e757600080fd5b6110f088610f80565b96506110fe60208901610f80565b95506040880135945060608801359350608088013560ff8116811461112257600080fd5b9699959850939692959460a0840135945060c09093013592915050565b6000806040838503121561115257600080fd5b61115b83610f80565b915061116960208401610f80565b90509250929050565b600181811c9082168061118657607f821691505b6020821081036111a657634e487b7160e01b600052602260045260246000fd5b50919050565b634e487b7160e01b600052601160045260246000fd5b808201808211156103c5576103c56111ac565b818103818111156103c5576103c56111ac565b634e487b7160e01b600052602160045260246000fdfea26469706673582212205bc9a29e4a9b3319b7c3adabf78defa249c720c7fe11e7458705c8957c23982a64736f6c63430008140033",
  "linkReferences": {},
  "deployedLinkReferences": {}
}